:020000040800F2
:100000006806002055020008810400081903000852
:100010007D04000811030008A5040008000000008A
:10002000000000000000000000000000890400083B
:100030001503000800000000850400088D04000876
:100040006F0200086F0200086F0200086F020008CC
:100050006F0200086F0200086F0200086F020008BC
:100060006F0200086F0200086F0200086F020008AC
:100070006F0200086F0200086F0200086F0200089C
:100080006F0200086F0200086F0200086F0200088C
:100090006F0200086F0200086F0200086F0200087C
:1000A0006F0200086F0200086F0200086F0200086C
:1000B0006F0200086F0200086F0200086F0200085C
:1000C0006F0200086F0200086F0200086F0200084C
:1000D0006F0200086F0200086F0200086F0200083C
:1000E0006F0200086F0200086F0200086F0200082C
:1000F0006F0200086F0200086F0200086F0200081C
:100100006F0200086F0200086F0200086F0200080B
:100110006F0200086F0200086F0200086F020008FB
:100120006F0200086F0200086F0200086F020008EB
:100130006F0200086F0200086F0200086F020008DB
:100140006F0200086F0200086F0200086F020008CB
:100150006F0200086F0200086F0200086F020008BB
:100160006F0200086F0200086F0200086F020008AB
:100170006F0200086F0200086F0200080000000014
:100180006F0200086F02000800F002F800F052F859
:1001900014A696E8000CB244B344DA4501D100F04D
:1001A00049F8BAE80F000FA696E83000A5EB040561
:1001B00004EB0607AAEB0704A7F101074FEA1515A0
:1001C0004FEA3414A4F10104AC4201D300F032F838
:1001D00013F0010F18BFFB1A43F0010300F001F800
:1001E000DBE718477C0400009C040000103A24BFA1
:1001F00078C878C1FAD8520724BF30C830C144BF8C
:1002000004680C6070470000704700000023002461
:1002100000250026103A28BF78C1FBD8520728BF16
:1002200030C148BF0B6070471FB500F00BFA1FBD0F
:1002300010B510BD00F031F81146FFF7F5FF00F0E2
:1002400033F900F04FF803B4FFF7F2FF03BC00F0FE
:1002500057F800000948804709480047FEE7FEE7D5
:10026000FEE7FEE7FEE7FEE7FEE7FEE7FEE7FEE766
:1002700004480549054A064B7047000091040008F0
:10028000890100086800002068060020680200203C
:1002900068020020704770477047754600F02CF8E0
:1002A000AE4605006946534620F00700854618B063
:1002B00020B5FFF7DDFFBDE820404FF000064FF00E
:1002C00000074FF000084FF0000BAC46ACE8C00947
:1002D000ACE8C009ACE8C009ACE8C00921F00701EE
:1002E0008D46704710B50446AFF300802046BDE848
:1002F0001040FFF7A8BF000000487047080000202A
:1003000001491820ABBEFEE726000200704700003E
:10031000FEE7000070470000FEE700002DE9F04F07
:100320000E6896FAA6F2B2FA82F236FA02F363D0B7
:100330004FF001084FF0030C0CE000BFD1E900635F
:100340000768AB4007EA0A073B430360013236FA0D
:1003500002F351D008FA02F316EA0304F6D0D1F8FA
:1003600004E0AEF10103022B94FAA4F31AD2B3FA1B
:1003700083F6D0F808907500D1E902AB0CFA05F3CA
:1003800029EA03090AFA05F747EA09078760476877
:100390006FEA030A27EA04090BFB04F747EA090797
:1003A000476006E0B3FA83F675000CFA05F36FEACE
:1003B000030A0F69C368AF4003EA0A033B43BEF177
:1003C000020FC360BAD1E3B2240AD1F814E094FA60
:1003D000A4F4002B08BFB4FA84F64FF0200308BF42
:1003E0002423C458B6000F27B740BC430EFA06F7C3
:1003F0002743C750A2E700BF0020BDE8F08F0000F0
:1004000044F6D351C1F26201A0FB01014FF0FF306D
:1004100000EB91104EF21001CEF200014860002076
:10042000886005200860704740F20001C2F20001B8
:100430000860704781B04EF21001CEF200010A68E8
:1004400001300092009A28BF4FF0FF300A68D203B3
:1004500000EBE27078B10A68D20300EBE27050B1B1
:100460000A68D20300EBE27028B10A68D20300EBFD
:10047000E2700028EAD101B070470000FEE70000FA
:10048000FEE7000070470000704700007047000062
:100490004EF68850CEF20000016841F47001016010
:1004A00070470000FEE7000088B043F60805C4F27C
:1004B0000205E86B4FF6FF0240F48040E863E86B0A
:1004C0004FF0FF3300F4804001900198A86B40F09A
:1004D0008050A863A86B00F08050019001984EF600
:1004E0000C50CEF200000168114040F20032C0F220
:1004F000FA52114301600168C1F3022181F0070241
:10050000042A28BF0422033903FA02F238BF00216B
:10051000D24302FA01F10901C175D5F8F80320F0C0
:100520000700C5F8F803D5F8F80340070CD0D5F854
:10053000F80340071CBFD5F8F8035FEA407003D00A
:10054000D5F8F8034007EED147F20006C4F20006E2
:100550003068102140F48040306055F8080C61F399
:10056000C70045F8080C55F8080C40F0010045F8A4
:10057000080C55F8080C80070CD455F8080C8007B7
:100580005CBF55F8080C5FEA807003D455F8080C7E
:100590008007EED5286820F0F0002860286820F455
:1005A000E0502860286820F460402860286820F027
:1005B00003002860286810F00C0F0BD0286810F09A
:1005C0000C0F07D0286810F00C0F03D0286810F02B
:1005D0000C0FEFD142F20044C0F2F4041827204679
:1005E000C4F20207FFF70CFF2046FFF71DFF0020B3
:1005F000CDE90500CDE90300CDE90100A86A01A914
:1006000040F00100A862A86A00F001000790079876
:100610004FF400303860022001900120029006F56E
:10062000C830FFF77BFE00BF57F8040C00F0020053
:1006300040EA004080F0020038604FF47A70FFF723
:10064000F9FEF1E7F1EE100A4FF6FF71C0F2C0318A
:1006500020EA010040F04070E1EE100A704700000F
:10066000800600080000002008000000EC010008DF
:100670008806000808000020600600000C02000840
:080680000024F400000000005A
:040000050800018965
:00000001FF
